{
  "contractName": "PeerToPeer",
  "abi": [
    {
      "constant": true,
      "inputs": [],
      "name": "count",
      "outputs": [
        {
          "name": "",
          "type": "uint256"
        }
      ],
      "payable": false,
      "stateMutability": "view",
      "type": "function",
      "signature": "0x06661abd"
    }
  ],
  "bytecode": "0x608060405260008055348015601357600080fd5b50609e806100226000396000f3fe608060405260043610603f576000357c0100000000000000000000000000000000000000000000000000000000900463ffffffff16806306661abd146044575b600080fd5b348015604f57600080fd5b506056606c565b6040518082815260200191505060405180910390f35b6000548156fea165627a7a72305820e0a852ed826bc7b98e76adcedf9dc38bd8f4597b041e48901c0b0875db9b2adf0029",
  "source": "pragma solidity >=0.4.22 <0.9.0;\n\ncontract PeerToPeer {\n    uint public count = 0;\n}",
  "sourcePath": "/Users/rohitky/SJSU/Fall 2022/CMPE 295/CMPE_295A/code/Solidity /contracts/PeerToPeer.sol",
  "compiler": {
    "name": "solc",
    "version": "0.5.0+commit.1d4f565a.Emscripten.clang"
  },
  "schemaVersion": "3.0.1",
  "updatedAt": "2022-11-01T03:36:56.695Z",
  "devdoc": {
    "methods": {}
  },
  "userdoc": {
    "methods": {}
  }
}