{
  "contractName": "PeerToPeer",
  "abi": [
    {
      "constant": true,
      "inputs": [
        {
          "name": "",
          "type": "address"
        }
      ],
      "name": "rider",
      "outputs": [
        {
          "name": "id",
          "type": "uint256"
        },
        {
          "name": "name",
          "type": "string"
        },
        {
          "name": "e_mail",
          "type": "string"
        },
        {
          "name": "number",
          "type": "uint256"
        }
      ],
      "payable": false,
      "stateMutability": "view",
      "type": "function",
      "signature": "0xa8ff2bea"
    },
    {
      "constant": true,
      "inputs": [
        {
          "name": "",
          "type": "uint256"
        }
      ],
      "name": "driver",
      "outputs": [
        {
          "name": "driver",
          "type": "address"
        },
        {
          "name": "name",
          "type": "string"
        },
        {
          "name": "e_mail",
          "type": "string"
        },
        {
          "name": "number",
          "type": "uint256"
        }
      ],
      "payable": false,
      "stateMutability": "view",
      "type": "function",
      "signature": "0xde6565e3"
    },
    {
      "constant": false,
      "inputs": [
        {
          "name": "_driver_pickup_location",
          "type": "uint256[]"
        },
        {
          "name": "_driver_drop_location",
          "type": "uint256[]"
        },
        {
          "name": "_rider_drop_location",
          "type": "uint256[]"
        },
        {
          "name": "_rider_pickup_location",
          "type": "uint256[]"
        }
      ],
      "name": "bookRide",
      "outputs": [
        {
          "name": "",
          "type": "bool"
        }
      ],
      "payable": false,
      "stateMutability": "nonpayable",
      "type": "function",
      "signature": "0x8f5f261b"
    }
  ],
  "bytecode": "0x608060405234801561001057600080fd5b50610a90806100206000396000f3fe608060405260043610610057576000357c0100000000000000000000000000000000000000000000000000000000900463ffffffff1680638f5f261b1461005c578063a8ff2bea146102f5578063de6565e314610439575b600080fd5b34801561006857600080fd5b506102db6004803603608081101561007f57600080fd5b810190808035906020019064010000000081111561009c57600080fd5b8201836020820111156100ae57600080fd5b803590602001918460208302840111640100000000831117156100d057600080fd5b919080806020026020016040519081016040528093929190818152602001838360200280828437600081840152601f19601f8201169050808301925050505050505091929192908035906020019064010000000081111561013057600080fd5b82018360208201111561014257600080fd5b8035906020019184602083028401116401000000008311171561016457600080fd5b919080806020026020016040519081016040528093929190818152602001838360200280828437600081840152601f19601f820116905080830192505050505050509192919290803590602001906401000000008111156101c457600080fd5b8201836020820111156101d657600080fd5b803590602001918460208302840111640100000000831117156101f857600080fd5b919080806020026020016040519081016040528093929190818152602001838360200280828437600081840152601f19601f8201169050808301925050505050505091929192908035906020019064010000000081111561025857600080fd5b82018360208201111561026a57600080fd5b8035906020019184602083028401116401000000008311171561028c57600080fd5b919080806020026020016040519081016040528093929190818152602001838360200280828437600081840152601f19601f820116905080830192505050505050509192919290505050610593565b604051808215151515815260200191505060405180910390f35b34801561030157600080fd5b506103446004803603602081101561031857600080fd5b81019080803573ffffffffffffffffffffffffffffffffffffffff169060200190929190505050610636565b604051808581526020018060200180602001848152602001838103835286818151815260200191508051906020019080838360005b83811015610394578082015181840152602081019050610379565b50505050905090810190601f1680156103c15780820380516001836020036101000a031916815260200191505b50838103825285818151815260200191508051906020019080838360005b838110156103fa5780820151818401526020810190506103df565b50505050905090810190601f1680156104275780820380516001836020036101000a031916815260200191505b50965050505050505060405180910390f35b34801561044557600080fd5b506104726004803603602081101561045c57600080fd5b8101908080359060200190929190505050610796565b604051808573ffffffffffffffffffffffffffffffffffffffff1673ffffffffffffffffffffffffffffffffffffffff1681526020018060200180602001848152602001838103835286818151815260200191508051906020019080838360005b838110156104ee5780820151818401526020810190506104d3565b50505050905090810190601f16801561051b5780820380516001836020036101000a031916815260200191505b50838103825285818151815260200191508051906020019080838360005b83811015610554578082015181840152602081019050610539565b50505050905090810190601f1680156105815780820380516001836020036101000a031916815260200191505b50965050505050505060405180910390f35b6000806105a08684610916565b90508080156105de57508460008151811015156105b957fe5b906020019060200201518460008151811015156105d257fe5b90602001906020020151145b801561061957508460018151811015156105f457fe5b9060200190602002015184600181518110151561060d57fe5b90602001906020020151145b1561062857600191505061062e565b60009150505b949350505050565b6000602052806000526040600020600091509050806000015490806001018054600181600116156101000203166002900480601f0160208091040260200160405190810160405280929190818152602001828054600181600116156101000203166002900480156106e85780601f106106bd576101008083540402835291602001916106e8565b820191906000526020600020905b8154815290600101906020018083116106cb57829003601f168201915b505050505090806002018054600181600116156101000203166002900480601f0160208091040260200160405190810160405280929190818152602001828054600181600116156101000203166002900480156107865780601f1061075b57610100808354040283529160200191610786565b820191906000526020600020905b81548152906001019060200180831161076957829003601f168201915b5050505050908060030154905084565b60016020528060005260406000206000915090508060000160009054906101000a900473ffffffffffffffffffffffffffffffffffffffff1690806001018054600181600116156101000203166002900480601f0160208091040260200160405190810160405280929190818152602001828054600181600116156101000203166002900480156108685780601f1061083d57610100808354040283529160200191610868565b820191906000526020600020905b81548152906001019060200180831161084b57829003601f168201915b505050505090806002018054600181600116156101000203166002900480601f0160208091040260200160405190810160405280929190818152602001828054600181600116156101000203166002900480156109065780601f106108db57610100808354040283529160200191610906565b820191906000526020600020905b8154815290600101906020018083116108e957829003601f168201915b5050505050908060030154905084565b60008082600181518110151561092857fe5b9060200190602002015184600181518110151561094157fe5b906020019060200201510383600181518110151561095b57fe5b9060200190602002015185600181518110151561097457fe5b90602001906020020151030283600081518110151561098f57fe5b906020019060200201518560008151811015156109a857fe5b90602001906020020151038460008151811015156109c257fe5b906020019060200201518660008151811015156109db57fe5b90602001906020020151030201905060006109f582610a19565b9050600581111515610a0c57600192505050610a13565b6000925050505b92915050565b600080600260018401811515610a2b57fe5b0490508291505b81811015610a5e578091506002818285811515610a4b57fe5b0401811515610a5657fe5b049050610a32565b5091905056fea165627a7a723058206e737790f5586d58c4d2e1344b68d58c9278ce188cf92b0f69524e5a209f04140029",
  "source": "pragma solidity >=0.4.22 <0.9.0;\n\ncontract PeerToPeer {\n    struct Rider {\n        uint256 id;\n        string name;\n        string e_mail;\n        uint256 number;\n    }\n\n    struct Driver {\n        address driver;\n        string name;\n        string e_mail;\n        uint256 number;\n    }\n    mapping(address => Rider) public rider;\n    mapping(uint256 => Driver) public driver;\n\n    function sqrt(uint256 x) private pure returns (uint256 y) {\n        uint256 z = (x + 1) / 2;\n        y = x;\n        while (z < y) {\n            y = z;\n            z = (x / z + z) / 2;\n        }\n    }\n\n    function isPickUpFeasible(\n        uint256[] memory _driver_pickup,\n        uint256[] memory _rider_pickup\n    ) private pure returns (bool) {\n        //x1, y1, x2, y2\n        uint256 temp = (_driver_pickup[0] - _rider_pickup[0]) *\n            (_driver_pickup[0] - _rider_pickup[0]) +\n            (_driver_pickup[1] - _rider_pickup[1]) *\n            (_driver_pickup[1] - _rider_pickup[1]);\n        uint256 dist = sqrt(temp);\n        if (dist <= 5) {\n            return true;\n        }\n        return false;\n    }\n\n    function bookRide(\n        uint256[] memory _driver_pickup_location,\n        uint256[] memory _driver_drop_location,\n        uint256[] memory _rider_drop_location,\n        uint256[] memory _rider_pickup_location\n    ) public returns (bool) {\n        bool isValid = isPickUpFeasible(\n            _driver_pickup_location,\n            _rider_pickup_location\n        );\n\n        if (\n            isValid &&\n            _rider_drop_location[0] == _driver_drop_location[0] &&\n            _rider_drop_location[1] == _driver_drop_location[1]\n        ) {\n            return true;\n        }\n        return false;\n    }\n}\n",
  "sourcePath": "/Users/rohitky/SJSU/Fall 2022/CMPE 295/CMPE_295A/code/Solidity /contracts/PeerToPeer.sol",
  "compiler": {
    "name": "solc",
    "version": "0.5.0+commit.1d4f565a.Emscripten.clang"
  },
  "schemaVersion": "3.0.1",
  "updatedAt": "2022-11-02T04:58:29.405Z",
  "devdoc": {
    "methods": {}
  },
  "userdoc": {
    "methods": {}
  }
}